{
    "_format": "hh-sol-artifact-1",
    "contractName": "BootstrapPeerRegistry",
    "sourceName": "contracts/BootstrapPeerRegistry.sol",
    "abi": [
        {
            "inputs": [],
            "stateMutability": "nonpayable",
            "type": "constructor"
        },
        {
            "inputs": [
                {
                    "internalType": "address",
                    "name": "owner",
                    "type": "address"
                }
            ],
            "name": "OwnableInvalidOwner",
            "type": "error"
        },
        {
            "inputs": [
                {
                    "internalType": "address",
                    "name": "account",
                    "type": "address"
                }
            ],
            "name": "OwnableUnauthorizedAccount",
            "type": "error"
        },
        {
            "anonymous": false,
            "inputs": [
                {
                    "indexed": false,
                    "internalType": "string",
                    "name": "peerId",
                    "type": "string"
                }
            ],
            "name": "Blacklisted",
            "type": "event"
        },
        {
            "anonymous": false,
            "inputs": [
                {
                    "indexed": true,
                    "internalType": "address",
                    "name": "depositor",
                    "type": "address"
                },
                {
                    "indexed": false,
                    "internalType": "string",
                    "name": "peerId",
                    "type": "string"
                }
            ],
            "name": "Deregistered",
            "type": "event"
        },
        {
            "anonymous": false,
            "inputs": [
                {
                    "indexed": false,
                    "internalType": "string",
                    "name": "peerId",
                    "type": "string"
                },
                {
                    "indexed": false,
                    "internalType": "string",
                    "name": "newLocation",
                    "type": "string"
                }
            ],
            "name": "LocationUpdated",
            "type": "event"
        },
        {
            "anonymous": false,
            "inputs": [
                {
                    "indexed": true,
                    "internalType": "address",
                    "name": "previousOwner",
                    "type": "address"
                },
                {
                    "indexed": true,
                    "internalType": "address",
                    "name": "newOwner",
                    "type": "address"
                }
            ],
            "name": "OwnershipTransferred",
            "type": "event"
        },
        {
            "anonymous": false,
            "inputs": [
                {
                    "indexed": true,
                    "internalType": "address",
                    "name": "depositor",
                    "type": "address"
                },
                {
                    "indexed": false,
                    "internalType": "string",
                    "name": "peerId",
                    "type": "string"
                },
                {
                    "indexed": false,
                    "internalType": "string",
                    "name": "locationMultiAddr",
                    "type": "string"
                }
            ],
            "name": "PeerRegistered",
            "type": "event"
        },
        {
            "inputs": [],
            "name": "TIME_LOCK",
            "outputs": [
                {
                    "internalType": "uint256",
                    "name": "",
                    "type": "uint256"
                }
            ],
            "stateMutability": "view",
            "type": "function"
        },
        {
            "inputs": [
                {
                    "internalType": "string",
                    "name": "_peerId",
                    "type": "string"
                }
            ],
            "name": "blacklistPeer",
            "outputs": [],
            "stateMutability": "nonpayable",
            "type": "function"
        },
        {
            "inputs": [
                {
                    "internalType": "string",
                    "name": "",
                    "type": "string"
                }
            ],
            "name": "bootstrapNodes",
            "outputs": [
                {
                    "internalType": "address",
                    "name": "owner",
                    "type": "address"
                },
                {
                    "internalType": "string",
                    "name": "peerId",
                    "type": "string"
                },
                {
                    "internalType": "uint256",
                    "name": "depositTime",
                    "type": "uint256"
                },
                {
                    "internalType": "uint256",
                    "name": "positiveVotes",
                    "type": "uint256"
                },
                {
                    "internalType": "uint256",
                    "name": "negativeVotes",
                    "type": "uint256"
                },
                {
                    "internalType": "string",
                    "name": "locationMultiAddr",
                    "type": "string"
                }
            ],
            "stateMutability": "view",
            "type": "function"
        },
        {
            "inputs": [
                {
                    "internalType": "uint256",
                    "name": "_newThreshold",
                    "type": "uint256"
                }
            ],
            "name": "changeVoteThreshold",
            "outputs": [],
            "stateMutability": "nonpayable",
            "type": "function"
        },
        {
            "inputs": [],
            "name": "confirmDepositChange",
            "outputs": [],
            "stateMutability": "nonpayable",
            "type": "function"
        },
        {
            "inputs": [],
            "name": "confirmDeregisterPeriodChange",
            "outputs": [],
            "stateMutability": "nonpayable",
            "type": "function"
        },
        {
            "inputs": [],
            "name": "confirmThresholdChange",
            "outputs": [],
            "stateMutability": "nonpayable",
            "type": "function"
        },
        {
            "inputs": [],
            "name": "depositAmount",
            "outputs": [
                {
                    "internalType": "uint256",
                    "name": "",
                    "type": "uint256"
                }
            ],
            "stateMutability": "view",
            "type": "function"
        },
        {
            "inputs": [
                {
                    "internalType": "string",
                    "name": "_peerId",
                    "type": "string"
                },
                {
                    "internalType": "string",
                    "name": "_locationMultiAddr",
                    "type": "string"
                }
            ],
            "name": "depositAndRegister",
            "outputs": [],
            "stateMutability": "payable",
            "type": "function"
        },
        {
            "inputs": [],
            "name": "depositChangeTime",
            "outputs": [
                {
                    "internalType": "uint256",
                    "name": "",
                    "type": "uint256"
                }
            ],
            "stateMutability": "view",
            "type": "function"
        },
        {
            "inputs": [
                {
                    "internalType": "string",
                    "name": "_peerId",
                    "type": "string"
                }
            ],
            "name": "deregister",
            "outputs": [],
            "stateMutability": "nonpayable",
            "type": "function"
        },
        {
            "inputs": [],
            "name": "deregisterChangeTime",
            "outputs": [
                {
                    "internalType": "uint256",
                    "name": "",
                    "type": "uint256"
                }
            ],
            "stateMutability": "view",
            "type": "function"
        },
        {
            "inputs": [],
            "name": "deregisterPeriod",
            "outputs": [
                {
                    "internalType": "uint256",
                    "name": "",
                    "type": "uint256"
                }
            ],
            "stateMutability": "view",
            "type": "function"
        },
        {
            "inputs": [],
            "name": "nextDepositAmount",
            "outputs": [
                {
                    "internalType": "uint256",
                    "name": "",
                    "type": "uint256"
                }
            ],
            "stateMutability": "view",
            "type": "function"
        },
        {
            "inputs": [],
            "name": "nextDeregisterPeriod",
            "outputs": [
                {
                    "internalType": "uint256",
                    "name": "",
                    "type": "uint256"
                }
            ],
            "stateMutability": "view",
            "type": "function"
        },
        {
            "inputs": [],
            "name": "nextVoteThreshold",
            "outputs": [
                {
                    "internalType": "uint256",
                    "name": "",
                    "type": "uint256"
                }
            ],
            "stateMutability": "view",
            "type": "function"
        },
        {
            "inputs": [],
            "name": "owner",
            "outputs": [
                {
                    "internalType": "address",
                    "name": "",
                    "type": "address"
                }
            ],
            "stateMutability": "view",
            "type": "function"
        },
        {
            "inputs": [],
            "name": "renounceOwnership",
            "outputs": [],
            "stateMutability": "nonpayable",
            "type": "function"
        },
        {
            "inputs": [
                {
                    "internalType": "uint256",
                    "name": "_newDepositAmount",
                    "type": "uint256"
                }
            ],
            "name": "setNextDepositAmount",
            "outputs": [],
            "stateMutability": "nonpayable",
            "type": "function"
        },
        {
            "inputs": [
                {
                    "internalType": "uint256",
                    "name": "_newDeregisterPeriod",
                    "type": "uint256"
                }
            ],
            "name": "setNextDeregisterPeriod",
            "outputs": [],
            "stateMutability": "nonpayable",
            "type": "function"
        },
        {
            "inputs": [],
            "name": "thresholdChangeTime",
            "outputs": [
                {
                    "internalType": "uint256",
                    "name": "",
                    "type": "uint256"
                }
            ],
            "stateMutability": "view",
            "type": "function"
        },
        {
            "inputs": [
                {
                    "internalType": "address",
                    "name": "newOwner",
                    "type": "address"
                }
            ],
            "name": "transferOwnership",
            "outputs": [],
            "stateMutability": "nonpayable",
            "type": "function"
        },
        {
            "inputs": [
                {
                    "internalType": "string",
                    "name": "_peerId",
                    "type": "string"
                },
                {
                    "internalType": "string",
                    "name": "_newLocation",
                    "type": "string"
                }
            ],
            "name": "updateLocation",
            "outputs": [],
            "stateMutability": "nonpayable",
            "type": "function"
        },
        {
            "inputs": [
                {
                    "internalType": "string",
                    "name": "_peerId",
                    "type": "string"
                },
                {
                    "internalType": "bool",
                    "name": "positive",
                    "type": "bool"
                }
            ],
            "name": "votePeer",
            "outputs": [],
            "stateMutability": "nonpayable",
            "type": "function"
        },
        {
            "inputs": [],
            "name": "voteThreshold",
            "outputs": [
                {
                    "internalType": "uint256",
                    "name": "",
                    "type": "uint256"
                }
            ],
            "stateMutability": "view",
            "type": "function"
        }
    ],
    "bytecode": "0x6080604052606460025560006005556303c267006008553480156200002357600080fd5b5033600073ffffffffffffffffffffffffffffffffffffffff168173ffffffffffffffffffffffffffffffffffffffff16036200009a5760006040517f1e4fbdf7000000000000000000000000000000000000000000000000000000008152600401620000919190620001bb565b60405180910390fd5b620000ab81620000b260201b60201c565b50620001d8565b60008060009054906101000a900473ffffffffffffffffffffffffffffffffffffffff169050816000806101000a81548173ffffffffffffffffffffffffffffffffffffffff021916908373ffffffffffffffffffffffffffffffffffffffff1602179055508173ffffffffffffffffffffffffffffffffffffffff168173ffffffffffffffffffffffffffffffffffffffff167f8be0079c531659141344cd1fd0a4f28419497f9722a3daafe3b4186f6b6457e060405160405180910390a35050565b600073ffffffffffffffffffffffffffffffffffffffff82169050919050565b6000620001a38262000176565b9050919050565b620001b58162000196565b82525050565b6000602082019050620001d26000830184620001aa565b92915050565b61240680620001e86000396000f3fe6080604052600436106101665760003560e01c806372d20b9b116100d1578063d799bc1f1161008a578063e0a09c6811610064578063e0a09c68146104a0578063e5b7afaa146104cb578063f2fde38b146104f4578063f6ddac741461051d57610166565b8063d799bc1f14610435578063db8c1ca31461045e578063de5dd2791461047557610166565b806372d20b9b14610332578063767db5441461035d578063892f3e491461039f5780638da5cb5b146103ca5780639233cfe6146103f5578063d54efa861461041e57610166565b806352bfad971161012357806352bfad971461025a578063632a1bb9146102715780636a7880b51461029c5780636c4b10b7146102c75780636d822718146102f0578063715018a61461031b57610166565b80630969e03c1461016b57806335376c361461018757806335696f31146101b25780633b8524b4146101db578063419759f5146102045780634fe437d51461022f575b600080fd5b61018560048036038101906101809190611618565b610546565b005b34801561019357600080fd5b5061019c610785565b6040516101a991906116a9565b60405180910390f35b3480156101be57600080fd5b506101d960048036038101906101d491906116fc565b61078b565b005b3480156101e757600080fd5b5061020260048036038101906101fd9190611784565b6108b9565b005b34801561021057600080fd5b50610219610925565b60405161022691906116a9565b60405180910390f35b34801561023b57600080fd5b5061024461092b565b60405161025191906116a9565b60405180910390f35b34801561026657600080fd5b5061026f610931565b005b34801561027d57600080fd5b506102866109d6565b60405161029391906116a9565b60405180910390f35b3480156102a857600080fd5b506102b16109dc565b6040516102be91906116a9565b60405180910390f35b3480156102d357600080fd5b506102ee60048036038101906102e99190611784565b6109e2565b005b3480156102fc57600080fd5b50610305610a09565b60405161031291906116a9565b60405180910390f35b34801561032757600080fd5b50610330610a0f565b005b34801561033e57600080fd5b50610347610a23565b60405161035491906116a9565b60405180910390f35b34801561036957600080fd5b50610384600480360381019061037f91906117b1565b610a29565b604051610396969594939291906118ba565b60405180910390f35b3480156103ab57600080fd5b506103b4610bab565b6040516103c191906116a9565b60405180910390f35b3480156103d657600080fd5b506103df610bb1565b6040516103ec9190611929565b60405180910390f35b34801561040157600080fd5b5061041c600480360381019061041791906117b1565b610bda565b005b34801561042a57600080fd5b50610433610db5565b005b34801561044157600080fd5b5061045c60048036038101906104579190611784565b610e5a565b005b34801561046a57600080fd5b50610473610e81565b005b34801561048157600080fd5b5061048a610f26565b60405161049791906116a9565b60405180910390f35b3480156104ac57600080fd5b506104b5610f2c565b6040516104c291906116a9565b60405180910390f35b3480156104d757600080fd5b506104f260048036038101906104ed91906117b1565b610f33565b005b34801561050057600080fd5b5061051b60048036038101906105169190611970565b61116d565b005b34801561052957600080fd5b50610544600480360381019061053f9190611618565b6111f3565b005b600554341461058a576040517f08c379a0000000000000000000000000000000000000000000000000000000008152600401610581906119e9565b60405180910390fd5b600073ffffffffffffffffffffffffffffffffffffffff166001836040516105b29190611a45565b908152602001604051809103902060000160009054906101000a900473ffffffffffffffffffffffffffffffffffffffff1673ffffffffffffffffffffffffffffffffffffffff161461063a576040517f08c379a000000000000000000000000000000000000000000000000000000000815260040161063190611aa8565b60405180910390fd5b6040518060c001604052803373ffffffffffffffffffffffffffffffffffffffff16815260200183815260200142815260200160008152602001600081526020018281525060018360405161068f9190611a45565b908152602001604051809103902060008201518160000160006101000a81548173ffffffffffffffffffffffffffffffffffffffff021916908373ffffffffffffffffffffffffffffffffffffffff16021790555060208201518160010190816106f99190611cd4565b5060408201518160020155606082015181600301556080820151816004015560a082015181600501908161072d9190611cd4565b509050503373ffffffffffffffffffffffffffffffffffffffff167f959e6962777f723c7105826cff1ab7f0485dc640ec814c80c85a1ea94b43534a8383604051610779929190611da6565b60405180910390a25050565b60075481565b600073ffffffffffffffffffffffffffffffffffffffff166001836040516107b39190611a45565b908152602001604051809103902060000160009054906101000a900473ffffffffffffffffffffffffffffffffffffffff1673ffffffffffffffffffffffffffffffffffffffff160361083b576040517f08c379a000000000000000000000000000000000000000000000000000000000815260040161083290611e29565b60405180910390fd5b801561087d576001826040516108519190611a45565b9081526020016040518091039020600301600081548092919061087390611e78565b91905055506108b5565b60018260405161088d9190611a45565b908152602001604051809103902060040160008154809291906108af90611e78565b91905055505b5050565b6108c161130e565b600454421015610906576040517f08c379a00000000000000000000000000000000000000000000000000000000081526004016108fd90611f0c565b60405180910390fd5b806003819055506203f4804261091c9190611f2c565b60048190555050565b60055481565b60025481565b61093961130e565b60075442101561097e576040517f08c379a000000000000000000000000000000000000000000000000000000000815260040161097590611f0c565b60405180910390fd5b6000600654036109c3576040517f08c379a00000000000000000000000000000000000000000000000000000000081526004016109ba90611fac565b60405180910390fd5b6006546005819055506000600681905550565b60065481565b60095481565b6109ea61130e565b806009819055506203f48042610a009190611f2c565b600a8190555050565b60085481565b610a1761130e565b610a216000611395565b565b600a5481565b6001818051602081018201805184825260208301602085012081835280955050505050506000915090508060000160009054906101000a900473ffffffffffffffffffffffffffffffffffffffff1690806001018054610a8890611af7565b80601f0160208091040260200160405190810160405280929190818152602001828054610ab490611af7565b8015610b015780601f10610ad657610100808354040283529160200191610b01565b820191906000526020600020905b815481529060010190602001808311610ae457829003601f168201915b505050505090806002015490806003015490806004015490806005018054610b2890611af7565b80601f0160208091040260200160405190810160405280929190818152602001828054610b5490611af7565b8015610ba15780601f10610b7657610100808354040283529160200191610ba1565b820191906000526020600020905b815481529060010190602001808311610b8457829003601f168201915b5050505050905086565b60035481565b60008060009054906101000a900473ffffffffffffffffffffffffffffffffffffffff16905090565b610be261130e565b6000600182604051610bf49190611a45565b908152602001604051809103902060040154600183604051610c169190611a45565b908152602001604051809103902060030154610c329190611f2c565b9050600254811015610c79576040517f08c379a0000000000000000000000000000000000000000000000000000000008152600401610c7090612018565b60405180910390fd5b6000816064600185604051610c8e9190611a45565b908152602001604051809103902060040154610caa9190612038565b610cb491906120a9565b905060328111610cf9576040517f08c379a0000000000000000000000000000000000000000000000000000000008152600401610cf090612126565b60405180910390fd5b600183604051610d099190611a45565b9081526020016040518091039020600080820160006101000a81549073ffffffffffffffffffffffffffffffffffffffff0219169055600182016000610d4f9190611461565b600282016000905560038201600090556004820160009055600582016000610d779190611461565b50507f81e32445db1ab3f971a6e0ae415ce6f58f8ad4ac1e87f6eaf42067e404f81dae83604051610da89190612146565b60405180910390a1505050565b610dbd61130e565b600454421015610e02576040517f08c379a0000000000000000000000000000000000000000000000000000000008152600401610df990611f0c565b60405180910390fd5b600060035403610e47576040517f08c379a0000000000000000000000000000000000000000000000000000000008152600401610e3e906121b4565b60405180910390fd5b6003546002819055506000600381905550565b610e6261130e565b806006819055506203f48042610e789190611f2c565b60078190555050565b610e8961130e565b600a54421015610ece576040517f08c379a0000000000000000000000000000000000000000000000000000000008152600401610ec590611f0c565b60405180910390fd5b600060095403610f13576040517f08c379a0000000000000000000000000000000000000000000000000000000008152600401610f0a90612246565b60405180910390fd5b6009546008819055506000600981905550565b60045481565b6203f48081565b3373ffffffffffffffffffffffffffffffffffffffff16600182604051610f5a9190611a45565b908152602001604051809103902060000160009054906101000a900473ffffffffffffffffffffffffffffffffffffffff1673ffffffffffffffffffffffffffffffffffffffff1614610fe2576040517f08c379a0000000000000000000000000000000000000000000000000000000008152600401610fd9906122b2565b60405180910390fd5b600854600182604051610ff59190611a45565b9081526020016040518091039020600201546110119190611f2c565b421015611053576040517f08c379a000000000000000000000000000000000000000000000000000000000815260040161104a9061231e565b60405180910390fd5b3373ffffffffffffffffffffffffffffffffffffffff166108fc6005549081150290604051600060405180830381858888f1935050505015801561109b573d6000803e3d6000fd5b506001816040516110ac9190611a45565b9081526020016040518091039020600080820160006101000a81549073ffffffffffffffffffffffffffffffffffffffff02191690556001820160006110f29190611461565b60028201600090556003820160009055600482016000905560058201600061111a9190611461565b50503373ffffffffffffffffffffffffffffffffffffffff167fed392d6c60bfee7cf61b9bc8bbcf48abb41bd5884565367943576fcd56a058e1826040516111629190612146565b60405180910390a250565b61117561130e565b600073ffffffffffffffffffffffffffffffffffffffff168173ffffffffffffffffffffffffffffffffffffffff16036111e75760006040517f1e4fbdf70000000000000000000000000000000000000000000000000000000081526004016111de9190611929565b60405180910390fd5b6111f081611395565b50565b3373ffffffffffffffffffffffffffffffffffffffff1660018360405161121a9190611a45565b908152602001604051809103902060000160009054906101000a900473ffffffffffffffffffffffffffffffffffffffff1673ffffffffffffffffffffffffffffffffffffffff16146112a2576040517f08c379a0000000000000000000000000000000000000000000000000000000008152600401611299906123b0565b60405180910390fd5b806001836040516112b39190611a45565b908152602001604051809103902060050190816112d09190611cd4565b507f5ce8b14d0bc114fb7e0389871755b1784cc4a79f9ab4f72255535491d7fb5e9c8282604051611302929190611da6565b60405180910390a15050565b611316611459565b73ffffffffffffffffffffffffffffffffffffffff16611334610bb1565b73ffffffffffffffffffffffffffffffffffffffff161461139357611357611459565b6040517f118cdaa700000000000000000000000000000000000000000000000000000000815260040161138a9190611929565b60405180910390fd5b565b60008060009054906101000a900473ffffffffffffffffffffffffffffffffffffffff169050816000806101000a81548173ffffffffffffffffffffffffffffffffffffffff021916908373ffffffffffffffffffffffffffffffffffffffff1602179055508173ffffffffffffffffffffffffffffffffffffffff168173ffffffffffffffffffffffffffffffffffffffff167f8be0079c531659141344cd1fd0a4f28419497f9722a3daafe3b4186f6b6457e060405160405180910390a35050565b600033905090565b50805461146d90611af7565b6000825580601f1061147f575061149e565b601f01602090049060005260206000209081019061149d91906114a1565b5b50565b5b808211156114ba5760008160009055506001016114a2565b5090565b6000604051905090565b600080fd5b600080fd5b600080fd5b600080fd5b6000601f19601f8301169050919050565b7f4e487b7100000000000000000000000000000000000000000000000000000000600052604160045260246000fd5b611525826114dc565b810181811067ffffffffffffffff82111715611544576115436114ed565b5b80604052505050565b60006115576114be565b9050611563828261151c565b919050565b600067ffffffffffffffff821115611583576115826114ed565b5b61158c826114dc565b9050602081019050919050565b82818337600083830152505050565b60006115bb6115b684611568565b61154d565b9050828152602081018484840111156115d7576115d66114d7565b5b6115e2848285611599565b509392505050565b600082601f8301126115ff576115fe6114d2565b5b813561160f8482602086016115a8565b91505092915050565b6000806040838503121561162f5761162e6114c8565b5b600083013567ffffffffffffffff81111561164d5761164c6114cd565b5b611659858286016115ea565b925050602083013567ffffffffffffffff81111561167a576116796114cd565b5b611686858286016115ea565b9150509250929050565b6000819050919050565b6116a381611690565b82525050565b60006020820190506116be600083018461169a565b92915050565b60008115159050919050565b6116d9816116c4565b81146116e457600080fd5b50565b6000813590506116f6816116d0565b92915050565b60008060408385031215611713576117126114c8565b5b600083013567ffffffffffffffff811115611731576117306114cd565b5b61173d858286016115ea565b925050602061174e858286016116e7565b9150509250929050565b61176181611690565b811461176c57600080fd5b50565b60008135905061177e81611758565b92915050565b60006020828403121561179a576117996114c8565b5b60006117a88482850161176f565b91505092915050565b6000602082840312156117c7576117c66114c8565b5b600082013567ffffffffffffffff8111156117e5576117e46114cd565b5b6117f1848285016115ea565b91505092915050565b600073ffffffffffffffffffffffffffffffffffffffff82169050919050565b6000611825826117fa565b9050919050565b6118358161181a565b82525050565b600081519050919050565b600082825260208201905092915050565b60005b8381101561187557808201518184015260208101905061185a565b60008484015250505050565b600061188c8261183b565b6118968185611846565b93506118a6818560208601611857565b6118af816114dc565b840191505092915050565b600060c0820190506118cf600083018961182c565b81810360208301526118e18188611881565b90506118f0604083018761169a565b6118fd606083018661169a565b61190a608083018561169a565b81810360a083015261191c8184611881565b9050979650505050505050565b600060208201905061193e600083018461182c565b92915050565b61194d8161181a565b811461195857600080fd5b50565b60008135905061196a81611944565b92915050565b600060208284031215611986576119856114c8565b5b60006119948482850161195b565b91505092915050565b7f496e636f7272656374206465706f73697420616d6f756e740000000000000000600082015250565b60006119d3601883611846565b91506119de8261199d565b602082019050919050565b60006020820190508181036000830152611a02816119c6565b9050919050565b600081905092915050565b6000611a1f8261183b565b611a298185611a09565b9350611a39818560208601611857565b80840191505092915050565b6000611a518284611a14565b915081905092915050565b7f5065657220616c72656164792072656769737465726564000000000000000000600082015250565b6000611a92601783611846565b9150611a9d82611a5c565b602082019050919050565b60006020820190508181036000830152611ac181611a85565b9050919050565b7f4e487b7100000000000000000000000000000000000000000000000000000000600052602260045260246000fd5b60006002820490506001821680611b0f57607f821691505b602082108103611b2257611b21611ac8565b5b50919050565b60008190508160005260206000209050919050565b60006020601f8301049050919050565b600082821b905092915050565b600060088302611b8a7fffffffffffffffffffffffffffffffffffffffffffffffffffffffffffffffff82611b4d565b611b948683611b4d565b95508019841693508086168417925050509392505050565b6000819050919050565b6000611bd1611bcc611bc784611690565b611bac565b611690565b9050919050565b6000819050919050565b611beb83611bb6565b611bff611bf782611bd8565b848454611b5a565b825550505050565b600090565b611c14611c07565b611c1f818484611be2565b505050565b5b81811015611c4357611c38600082611c0c565b600181019050611c25565b5050565b601f821115611c8857611c5981611b28565b611c6284611b3d565b81016020851015611c71578190505b611c85611c7d85611b3d565b830182611c24565b50505b505050565b600082821c905092915050565b6000611cab60001984600802611c8d565b1980831691505092915050565b6000611cc48383611c9a565b9150826002028217905092915050565b611cdd8261183b565b67ffffffffffffffff811115611cf657611cf56114ed565b5b611d008254611af7565b611d0b828285611c47565b600060209050601f831160018114611d3e5760008415611d2c578287015190505b611d368582611cb8565b865550611d9e565b601f198416611d4c86611b28565b60005b82811015611d7457848901518255600182019150602085019450602081019050611d4f565b86831015611d915784890151611d8d601f891682611c9a565b8355505b6001600288020188555050505b505050505050565b60006040820190508181036000830152611dc08185611881565b90508181036020830152611dd48184611881565b90509392505050565b7f5065657220646f6573206e6f7420657869737400000000000000000000000000600082015250565b6000611e13601383611846565b9150611e1e82611ddd565b602082019050919050565b60006020820190508181036000830152611e4281611e06565b9050919050565b7f4e487b7100000000000000000000000000000000000000000000000000000000600052601160045260246000fd5b6000611e8382611690565b91507fffffffffffffffffffffffffffffffffffffffffffffffffffffffffffffffff8203611eb557611eb4611e49565b5b600182019050919050565b7f54696d65206c6f636b206e6f7420657870697265640000000000000000000000600082015250565b6000611ef6601583611846565b9150611f0182611ec0565b602082019050919050565b60006020820190508181036000830152611f2581611ee9565b9050919050565b6000611f3782611690565b9150611f4283611690565b9250828201905080821115611f5a57611f59611e49565b5b92915050565b7f4e6f206465706f736974206368616e67652070656e64696e6700000000000000600082015250565b6000611f96601983611846565b9150611fa182611f60565b602082019050919050565b60006020820190508181036000830152611fc581611f89565b9050919050565b7f4e6f7420656e6f75676820766f74657320696e20746f74616c00000000000000600082015250565b6000612002601983611846565b915061200d82611fcc565b602082019050919050565b6000602082019050818103600083015261203181611ff5565b9050919050565b600061204382611690565b915061204e83611690565b925082820261205c81611690565b9150828204841483151761207357612072611e49565b5b5092915050565b7f4e487b7100000000000000000000000000000000000000000000000000000000600052601260045260246000fd5b60006120b482611690565b91506120bf83611690565b9250826120cf576120ce61207a565b5b828204905092915050565b7f4c657373207468616e20353025206e6567617469766520766f74657300000000600082015250565b6000612110601c83611846565b915061211b826120da565b602082019050919050565b6000602082019050818103600083015261213f81612103565b9050919050565b600060208201905081810360008301526121608184611881565b905092915050565b7f4e6f207468726573686f6c64206368616e67652070656e64696e670000000000600082015250565b600061219e601b83611846565b91506121a982612168565b602082019050919050565b600060208201905081810360008301526121cd81612191565b9050919050565b7f4e6f206465726567697374657220706572696f64206368616e67652070656e6460008201527f696e670000000000000000000000000000000000000000000000000000000000602082015250565b6000612230602383611846565b915061223b826121d4565b604082019050919050565b6000602082019050818103600083015261225f81612223565b9050919050565b7f4e6f7420746865206f776e6572206f6620746869732070656572496400000000600082015250565b600061229c601c83611846565b91506122a782612266565b602082019050919050565b600060208201905081810360008301526122cb8161228f565b9050919050565b7f43616e6e6f742064657265676973746572207965740000000000000000000000600082015250565b6000612308601583611846565b9150612313826122d2565b602082019050919050565b60006020820190508181036000830152612337816122fb565b9050919050565b7f596f7520617265206e6f7420746865206f776e6572206f66207468697320706560008201527f6572496400000000000000000000000000000000000000000000000000000000602082015250565b600061239a602483611846565b91506123a58261233e565b604082019050919050565b600060208201905081810360008301526123c98161238d565b905091905056fea2646970667358221220ba322c20c77900cc65789c9daf353f4eb055892bfd188dac57fa0e4daf3fa79f64736f6c63430008180033",
    "linkReferences": {},
    "deployedLinkReferences": {}
}